:10200000173100001301010097000000E780407CB9
:042010006F0000005D
:10201400130101FE232E8100130401022326A4FED2
:10202400130000008327C4FE1387F7FF2326E4FE72
:10203400E39A07FE13000000130000000324C1010B
:102044001301010267800000130101FD23268102B0
:1020540013040103232EA4FC232CB4FC232AC4FC64
:102064002328D4FC8327C4FD63D00702832704FDFF
:102074001307100023A0E7008327C4FDB307F04033
:10208400232EF4FC6F00C000832704FD23A0070067
:102094008327C4FD130730066354F7009307300603
:1020A4002326F4FE832744FD23A007006F0040028B
:1020B4008327C4FE938767FF2326F4FE832744FD0A
:1020C40083A7070013871700832744FD23A0E70095
:1020D4000327C4FE93079000E3CCE7FC832784FD29
:1020E4000327C4FE23A0E700130000000324C10259
:1020F4001301010367800000130101FB23268104FF
:1021040013040105232EA4FAB7370000938707951B
:1021140003AE070003A3470083A8870003A8C700F2
:1021240003A5070183A5470103A6870183A6C70169
:1021340003A7070283A747022324C4FD232664FCC4
:10214400232814FD232A04FD232CA4FC232EB4FCF1
:102154002320C4FE2322D4FE2324E4FE2326F4FEFB
:102164008327C4FB63C407020327C4FB93079000BF
:1021740063CEE7008327C4FB93972700938707FF69
:10218400B387870083A787FD6F0080009307000053
:10219400138507000324C1041301010567800000AF
:1021A400130101FC232E1102232C810213040104C8
:1021B400B7072000938507FF130580EC9700000004
:1021C400E780C03D232604FE232404FE232204FECC
:1021D400930730002320F4FE130500EC9700000061
:1021E400E780C03E9307050093F7F701232EF4FC24
:1021F4008327C4FD93F71700638C0702232004FE92
:102204008327C4FE938717002326F4FE0327C4FE06
:102214009307300663D6E700930730062326F4FEBF
:10222400B7170300138507D497000000E78080DE0A
:102234008327C4FD93F72700638E070293071000DA
:102244002320F4FE832784FE938717002324F4FEBF
:10225400032784FE9307300663D6E700930730060E
:102264002324F4FEB7170300138507D49700000056
:10227400E78040DA8327C4FD93F7470063860702AB
:10228400832744FE93B7170093F7F70F2322F4FE36
:10229400930730002320F4FEB7A707001385071225
:1022A40097000000E78000D78327C4FD93F78700D9
:1022B40063840702232604FE232404FE232204FE4F
:1022C400930730002320F4FEB7A7070013850712F5
:1022D40097000000E78000D48327C4FD93F707012B
:1022E40063840702232604FE232404FE232204FE1F
:1022F400930730002320F4FEB7A7070013850712C5
:1023040097000000E78000D1832704FE6380070460
:10231400032704FE930710006306F702832744FE95
:10232400639A07000327C4FE832784FEB307F700DC
:102334006F0000020327C4FE832784FEB307F7401F
:102344006F000001832784FE6F0080008327C4FE92
:10235400232CF4FC930644FC130784FC9307C4FC6D
:102364001306070093850700032584FD97000000EA
:10237400E780C0CD8327C4FC1385070097000000C5
:10238400E780C0D7232AA4FC832744FC639E07006C
:10239400832784FC1385070097000000E78000D69C
:1023A400930705006F0080009307C0002328F4FC06
:1023B400832744FD13975700832704FD93979700C1
:1023C400B367F70093850700130540EC97000000FE
:1023D400E780C01C6FF05FE0130101FD23261102AA
:1023E4002324810213040103232EA4FC232CB4FC14
:1023F400232AC4FC832744FD2326F4FE0327C4FEBA
:10240400B717000093870780B377F700638007024C
:102414000327C4FEB71700003307F700B7F7FFFF21
:10242400B377F70093E777136F0040010327C4FEE7
:10243400B7F7FFFFB377F70093E777133747000049
:10244400130707002320F7008327C4FE13974701CF
:10245400B7070100938737113367F700B7470000C8
:102464009387070023A2E7008327C4FD2326F4FEF5
:102474000327C4FEB717000093870780B377F700DC
:10248400638007020327C4FEB71700003307F70071
:10249400B7F7FFFFB377F70093E7770B6F004001BF
:1024A4000327C4FEB7F7FFFFB377F70093E7770B73
:1024B40037470000130707002324F7008327C4FECF
:1024C40013974701B7870000938737093367F700ED
:1024D400B74700009387070023A6E700B74700002B
:1024E40093870700378700001307770E23A8E700B8
:1024F400B7470000938707003707C0FF1307770625
:1025040023AAE70093050000130540FE970000008E
:10251400E780C008130500FE97000000E780000B69
:102524009307050013F71700930710006304F700DF
:102534006FF05FFD13000000B747000093870700AA
:1025440093850700130580FE97000000E7800005CF
:10255400832584FD1305C0FE97000000E780000476
:10256400232404FE6F000001832784FE9387170051
:102574002324F4FE032784FE93074000E3D6E7FEFA
:1025840013000000130000008320C1020324810211
:102594001301010367800000130101FE232E810053
:1025A400130401022326A4FE2324B4FE8327C4FEBD
:1025B400032784FE23A0E700130000000324C101C5
:1025C4001301010267800000130101FE232E810024
:1025D400130401022326A4FE8327C4FE83A7070055
:1025E400138507000324C101130101026780000061
:1025F400130101FE232E8100130401022326A4FEED
:102604002324B4FE832784FE0327C4FEB357F700B4
:1026140093F71700138507000324C1011301010276
:1026240067800000130101FD232611022324810287
:1026340013040103232EA4FC232CB4FC8327C4FD20
:102644002326F4FE8327C4FE83A70700832584FD85
:102654001385070097000000E780C0F99307050081
:10266400138507008320C10203248102130101039F
:1026740067800000130101FD232681021304010376
:10268400232EA4FC232CB4FC8327C4FD2326F4FEB0
:102694008327C4FE83A70700032784FD9306100045
:1026A4003397E60033E7E7008327C4FE23A0E7005F
:1026B400130000000324C10213010103678000001A
:1026C400130101FD2326810213040103232EA4FC1C
:1026D400232CB4FC232AC4FC8327C4FD2326F4FE44
:1026E4008327C4FE03A70700832744FD3357F7005D
:1026F400832784FDB377F700138507000324C10201
:102704001301010367800000130101FD23268102E8
:1027140013040103232EA4FC232CB4FC8327C4FD3F
:102724002326F4FE8327C4FE83A70700032784FD22
:10273400930610003397E6001347F7FF33F7E700DB
:102744008327C4FE23A0E700130000000324C10272
:102754001301010367800000130101FD2326810298
:1027640013040103232EA4FC232CB4FC232AC4FC4D
:102774002328D4FC8327C4FD2326F4FE8327C4FE28
:1027840003A70700832704FD832644FDB397F600BF
:1027940093C7F7FF3377F700832684FD832744FD2F
:1027A400B3F6F600832704FDB397F6003367F7000A
:1027B4008327C4FE23A0E700130000000324C10202
:1027C4001301010367800000130101FE232E110091
:1027D400232C810013040102B737000093878797E5
:1027E4002326F4FEB7470000938707002324F4FE52
:1027F4006F0040020327C4FE930717002326F4FE4C
:10280400832784FE938617002324D4FE03470700FE
:102814002380E700032784FEB7470000938707005F
:10282400E36AF7FCB7470000938707002324F4FE0C
:102834006F004001832784FE138717002324E4FEDE
:1028440023800700032784FEB74700009387C7014E
:10285400E362F7FE97000000E780C09413000000D5
:102864006FF0DFFF130101FD23268102130401032E
:10287400232EA4FC232CB4FC232AC4FC8327C4FDEC
:102884002324F4FE232604FE6F0080028327C4FE63
:10289400032784FEB307F700032784FD1377F70F9C
:1028A4002380E7008327C4FE938717002326F4FEC2
:1028B4008327C4FE032744FDE3EAE7FC8327C4FD22
:1028C400138507000324C10213010103678000007C
:1028D400130101FD2326810213040103232EA4FC0A
:1028E400232CB4FC232AC4FC832784FD2324F4FE74
:1028F4008327C4FD2322F4FE232604FE6F00000375
:102904008327C4FE032784FE3307F7008327C4FE0E
:10291400832644FEB387F600034707002380E700BD
:102924008327C4FE938717002326F4FE8327C4FE5F
:10293400032744FDE3E6E7FC8327C4FD1385070072
:102944000324C1021301010367800000000000009A
:102954000100000002000000030000000400000069
:102964000500000006000000070000000800000049
:042974000900000056
:0400000300002000D9
:00000001FF
