:100000006F004000172100001301C1FF971000008E
:10001000E780C01A6F000000130101FF23261100C2
:1000200093050000130540FE97100000E780401084
:10003000130500FE97100000E780001013751500EF
:10004000E30005FEB727000083A50780130580FEA7
:1000500097100000E780C00DB72700008320C10083
:1000600083A547801305C0FE13010101171300008B
:100070006700030C130101FF23229100B724000045
:1000800083A74480B705008023248100B385F50051
:1000900013040500130540F52326110097100000F6
:1000A000E780000993050400130580F59710000010
:1000B000E780000883A7448093051000130580F4AF
:1000C000B395F50097100000E78080061304000048
:1000D00097000000E78080F493045000130540F47B
:1000E00097100000E780400513751500631C05009C
:1000F00013041400E31494FE93050000130580F428
:100100006F00C00093050000130540F69710000033
:10011000E7800002032481008320C1008324410082
:1001200093050000130540F51301010117130000AA
:1001300067000300130101FFB7170000138707F8DA
:1001400023202101131975003379E90013870780F3
:1001500023248100232291002326110033F7E50098
:100160001304050093840500630C0704B387F500AE
:1001700037F7FFFFB3F7E700B3E7270113E577038E
:1001800097000000E78040EF1315F400B7870F00D9
:100190003375F500032481003365250193944401F0
:1001A0008320C100032901003365950083244100A9
:1001B0001365350113010101170300006700C3EB4C
:1001C000B7F7FFFFB3F7F5006FF01FFB630C0502F5
:1001D000B7870F001315F5003375F500130101FF04
:1001E000136535012326110097000000E780C0E861
:1001F0008320C100130500F513010101171300004E
:10020000670083F3B727000003A5478067800000DD
:10021000B727000023A0A78067800000B727000051
:1002200003A50780678000002320B50067800000D9
:100230000325050067800000130101FF23229100C0
:10024000B724000083A7448093051000130580F4B1
:10025000B395F500232611002320210123248100DA
:100260001309500097100000E78080EC9700000011
:10027000E780C0DA130540F497100000E780C0EB78
:1002800013040500631C05001309F9FFE31409FEBC
:1002900093050000130580F46F0080039377150029
:1002A00063860704130500F697100000E780C0E896
:1002B000B727000023A0A780130540F69710000081
:1002C000E78080E723A2A48093050000130540F691
:1002D000032481008320C1008324410003290100FD
:1002E0001301010117130000670083E49305000068
:1002F000130580F41374240097100000E78040E396
:10030000630A0402130580F697100000E780C0E23C
:10031000B727000023A0A7801305C0F697100000A0
:10032000E78080E123A2A480930500001305C0F6B6
:100330006FF01FFA8320C100032481008324410051
:10034000032901001301010167800000130101FF6F
:1003500093050000130580F4232611009710000078
:10036000E78000DD8320C1001301010117030000B5
:100370006700C3CA130101FE130500F4232E110008
:10038000232C8100232A910097100000E780C0DA17
:1003900037071FDB930700006318E506930510007D
:1003A0001305C0F497100000E78080D813073001D0
:1003B000232601008327C1006354F706930500003C
:1003C0001305C0F497100000E78080D6B72700001F
:1003D0003727000023A0E780B7270000130710008D
:1003E00023A2E78013041000930400021305040005
:1003F000930500001304140097000000E780C0D3A9
:10040000E31694FE930710008320C10103248101A9
:100410008324410113850700130101026780000056
:100420008327C100938717002326F1006FF09FF800
:10043000130101FF130540F423261100971000005B
:10044000E78080CF937725001305000063800704C1
:10045000130580F697100000E78000CEB727000054
:1004600023A0A7801305C0F697100000E780C0CC3A
:10047000B727000023A2A780930500001305C0F64C
:1004800097100000E780C0CA130510008320C10048
:100490001301010167800000130101FF9305E0FFD4
:1004A000130580F4232481002322910023261100C8
:1004B0001304000097100000E78080C793045000E9
:1004C000130540F497100000E78000C7137515006E
:1004D000631A050413041400E31494FE930500004A
:1004E000130580F497100000E78080C49700000097
:1004F000E78040F4631E0500B7270000372700009F
:1005000023A0E780B72700001307100023A2E7808D
:100510008320C100032481008324410013010101D1
:1005200067800000130500F697100000E780C0C048
:10053000B727000023A0A780130540F697100000FE
:10054000E78080BFB727000023A2A78093050000A3
:10055000130540F697100000E78080BD032481005A
:100560008320C10083244100130540F413010101DD
:1005700017130000670043BC93070500130505FD32
:100580009376F50F130790006378D7021387F7F976
:100590001377F70F9306500063E6E600138597FA8A
:1005A000678000001387F7FB1377F70F1305F0FF41
:1005B00063E4E600138597FC67800000130101FFE8
:1005C0002324810023261100232291001304050017
:1005D0001305040097100000E78000B1E30A05FE50
:1005E00093074002B7240000631EF40023840480B4
:1005F0008320C100032481008324410013010101F1
:10060000678000001307300283C784806314E4040A
:10061000371400001304042583C7848093D7470050
:10062000B307F40003C5070097100000E780C0ABD4
:10063000E30405FE83C7848093F7F700B307F40053
:1006400003C5070097100000E78000AAE30405FE39
:100650006FF01FFA3304F400238484806FF05FF995
:10066000130101FE232E11001305F1009710000065
:10067000E78080A2E30A05FE8320C1010345F10063
:100680001301010267800000130101FE1305F10050
:10069000232E110097100000E78000A093070000B0
:1006A0006354A0008347F1008320C1011385070034
:1006B0001301010267800000130101FF2324810060
:1006C000232611001304050003450400631A0500E6
:1006D0008320C10003248100130101016780000011
:1006E0001304140097000000E78080ED6FF0DFFD39
:1006F000130101FF23229100B7140000232481007D
:1007000023202101232611001304050013094000B2
:10071000938404259357440093F7F700B387F400BC
:1007200003C507001309F9FF97000000E78040E9BF
:100730009377F400B387F40003C5070013548400D3
:1007400097000000E780C0E7E31609FC8320C100A2
:1007500003248100832441000329010013010101C6
:1007600067800000130101FF2324810023229100F0
:100770002320210123261100930405001304000007
:100780001309F00097000000E780C0ED2380A4006B
:1007900097000000E78080DE6368A900131444001E
:1007A0003304A4006FF01FFE8320C1001305040072
:1007B0000324810083244100032901001301010166
:1007C00067800000130101FF232481002322910090
:1007D0002326110013040500930430029700000043
:1007E000E78040E8E31C95FE97000000E78080E783
:1007F00097000000E78000E7130504000324810050
:100800008320C1008324410013010101170300006C
:100810006700C3EA130101FF23261100930730028A
:100820006302F50237150000130505279700000045
:10083000E78080F9130500008320C1001301010146
:100840006780000097000000E780C0E1970000008B
:10085000E78040E1130510006FF01FFEB71700009E
:10086000130101F9938707252324810623267105A7
:100870002324810523229105232611062322910694
:1008800023202107232E3105232C4105232A51053E
:10089000232861052320A105232EB10313040000A2
:1008A000930B4002130C3006232EF100B71C0000FE
:1008B00097000000E78080DDA307A102631405080C
:1008C0006304040297000000E780C0B66302050CD1
:1008D0001305500497000000E78080CE13855C2745
:1008E00097000000E78080DD97000000E78000DAD5
:1008F000A307A102E30A05FE93073000E306F5FE15
:1009000013040000E31675FB97000000E78080D514
:10091000A307A102630C855B636CAC1493074004CE
:10092000630AF55E63E6A71093071002630CF522D5
:100930009307F0036304F55C3715000013050527E2
:100940006F004012930730006312F508E30E04F8BD
:100950006F0080059307400213041000E31AF5F4BA
:1009600097000000E78000D0A307A10293071002C0
:100970006302F51C93071007130410006306F506C5
:10098000371500001305052797000000E780C0E336
:1009900097000000E78080CFA307A102E30405F2DF
:1009A00093073000E318F5FA1305000597000000DF
:1009B000E78000C113855C2797000000E78000D026
:1009C00097000000E78080AD6FF01FF2E31275EF33
:1009D00097000000E78000C9A307A102E30C04F21E
:1009E0006FF0DFF8130400008327C10193844701EF
:1009F00083C70400638C070097000000E78080C66F
:100A000083C70400A307A1026382A7160345F1026E
:100A100097000000E78040E0E30C05E883C704008E
:100A2000639A071497000000E78000956F00C012DA
:100A30009307D004630EF52E93070005E31EF5EE31
:100A40001305F10297000000E78000D20347F1028E
:100A50009307D003930405006308F712B71700004B
:100A60001385072797000000E78000D66FF0DFE7C7
:100A70009307D0066302F51A63E0A7089307700690
:100A8000E31CF5EA97000000E780C0BDA307A102C0
:100A900097000000E78040D8E30805E41305B002A2
:100AA00097000000E780C0B11305400297000000E6
:100AB000E78000B113040000930400021305040052
:100AC00097F0FFFFE780C070130414009700000048
:100AD000E78040C2E31494FE97F0FFFFE780407484
:100AE00097000000E78000C1130530029700000066
:100AF000E78000AD6FF05FDF93071007E304F5EECA
:100B000093073007E31AF5E297000000E78080B50D
:100B1000A307A10297000000E78000D0E30605DCF0
:100B200097F0FFFFE7808071371500001305452718
:100B30006FF01FDB1304100097000000E78080B205
:100B4000A307A10297000000E78000CDE30205D6CD
:100B500097000000E7808094371500001305C52733
:100B60006FF01FD8130400006FF01FFD9384140072
:100B70006FF01FE8371500001305052797000000E8
:100B8000E780C0B36FF0DFD21305F10297000000D9
:100B9000E78080BD130405000345F10297000000C3
:100BA000E78080C7E30205D4E38804FA9357840101
:100BB00093158401B3E5F5003707FF009317840010
:100BC000B3F7E700B3E5F500B7070100938707F037
:100BD000135484003374F4009307F001B3E58500E7
:100BE00063EA97001385040097F0FFFFE780C05485
:100BF0006FF09FF693070002639AF40013850500D7
:100C000097F0FFFFE78000616FF01FF537150000D8
:100C1000130505276FF0DFCC1305F10297000000E4
:100C2000E78080B40347F1029307C002130A05006E
:100C3000E316F7E21305F10297000000E780C0B267
:100C4000130405000345F10297000000E780C0BCD3
:100C5000E30C05C81305B00297000000E78040963A
:100C60001305400297000000E780809513051000EF
:100C700097F0FFFFE780C055B71400002324A100C0
:100C800093090000930A40009384042563EC8900D3
:100C9000832581001305100097F0FFFFE780C0490E
:100CA0006FF09FE4338D49011375CDFFB30D3441CF
:100CB000137D3D0097F0FFFFE780C057B38DAD0176
:100CC0001309050063D4BA01930D400093060D008B
:100CD00063CCB6019307000063C4AD01B387AD4197
:100CE000B389F9006FF09FFA139B360093074B000E
:100CF000B357F90093F7F700B387F40003C5070073
:100D0000335B6901137BFB002326D100338B640125
:100D100097000000E780C08A03450B0097000000A1
:100D2000E780008A8326C100938616006FF05FFA81
:100D30001305F10297000000E78000A30347F102CA
:100D40002328A1009307C002E31AF7D01305F1028C
:100D500097000000E78040A10347F1022324A1008F
:100D60009307A003E31CF7CE1305100097F0FFFFD5
:100D7000E7800046232AA1001305200097F0FFFF1B
:100D8000E7800045232CA10013040000130A000093
:100D900093040000130DF000832781006364F404C2
:100DA000832541011305100097F0FFFFE780C0384D
:100DB000832581011305200097F0FFFFE780C037EE
:100DC0001307F000E36C47C997000000E7808089B3
:100DD000A307A10297000000E78000A4E31E05D648
:100DE0006FF0DFC783270101B30AF4008327810076
:100DF00093F63A00138B0600338787403307D700FA
:100E000093074000930D070063D4E700930D400063
:100E1000639606009307300063CEE70213F5CAFF1E
:100E200097F0FFFFE78000419304050093193B0012
:100E300013090000B3062B0163C2B60393850400B7
:100E400013F5CAFF97F0FFFFE780403E330424010B
:100E50006FF09FF4130B00006FF05FFD9307F00F2E
:100E6000B397370193C7F7FFB3F4F400232631019A
:100E700097F0FFFFE780007FA307A10297F0FFFF35
:100E8000E780C06F130A0500E36AADFA9386490054
:100E9000B317D500B3E4F40097F0FFFFE780807C40
:100EA000A307A10297F0FFFFE780406D130A05003A
:100EB00093898900E364ADF88327C1001309190001
:100EC000B316F500B3E4D4006FF0DFF697F0FFFF40
:100ED000E7804079A307A10297000000E780C09354
:100EE000E30405A097F0FFFFE78080461305B002FA
:100EF00097F0FFFFE780C06C6FF09FA997F0FFFFAE
:100F0000E780407697000000E7800091E30E059CA3
:100F10006FF09FC197F0FFFFE780C074A307A102A5
:100F200097000000E780408FE300059C97F0FFFFEB
:100F3000E7800042371500001305C52797F0FFFF33
:100F4000E780C0776FF0DFA423200500232205008F
:100F50002324C5002326B500678000000327050071
:100F600083264500930705003307D7401307F7FF93
:100F700063560700832685003307D7001305F0FF6B
:100F80006350E00403A6470083A6C70093F5F50F5E
:100F9000B386C6002380B60083A6470003A6870059
:100FA0009386160023A2D70083A6470063E8C600F5
:100FB00083A64700B386C64023A2D7001305F7FFD8
:100FC000678000000327450083260500930705007E
:100FD0003307D74063560700832685003307D700C1
:100FE0001305F0FF6350E00403A6070083A6C700C3
:100FF000B386C60083C606002380D50083A60700FB
:1010000003A687009386160023A0D70083A60700B7
:1010100063E8C60083A60700B386C64023A0D700B6
:101020001305F7FF6780000037F7FA021307070878
:1010300093571500B387E7001308F000130700006B
:10104000130E10001303F0FFB318050163CA070065
:1010500063F8F800B3871741B3180E01330717017F
:101060001308F8FFE31268FE9387F5FF93970701D3
:1010700013164601B3E7C70093966601B3E7D7009E
:101080009305F7FFB3E5B700130580F917030000D8
:101090006700030A130101FF2324810013040500E4
:1010A0001305C0F92326110097000000E780C0084F
:1010B0001375150063040502130540F9970000003D
:1010C000E78080072300A400130510008320C100DF
:1010D0000324810013010101678000001305000053
:1010E0006FF0DFFE130101FE2326A1001305C0F9F6
:1010F000232E110097000000E780000413752500DF
:101100008325C10063000502130500F99700000064
:10111000E7800002130510008320C10113010102C2
:1011200067800000130500006FF01FFF2320B5004B
:1011300067800000032505006780000037C50100B7
:10114000130101FF1305052093060000130600009C
:10115000930580002326110097000000E78000ED32
:1011600097F0FFFFE780C06F8320C10013050000E8
:101170001301010167800000930700006394C7001A
:10118000678000003387F500834607003307F500CA
:10119000938717002300D7006FF05FFE93070000CE
:1011A0006394C700678000003307F5002300B70091
:1011B000938717006FF0DFFE130101FFB7270000D0
:1011C00037270000B7C6ADDE2326110093870781BD
:1011D000130707009386F6EE63E6E706372500005F
:1011E000B727000093878780130705801306000048
:1011F00063E4E7003386E740B71500009385452890
:101200001305058097000000E78040F7B72700002E
:10121000372500009387C7801307858013060000D9
:1012200063E4E7003386E7409305000013058580FB
:1012300097000000E780C0F697000000E78040F0CC
:101240006F00000023A0D700938747006FF0DFF8FE
:10125000303132333435363738396162636465662C
:101260000000000052636D642C3732230000000040
:101270002B2423002B245330352300002B244F4BE9
:02128000230049
:08128400002000000100000041
:00000001FF
